:100000000C942A000C9434000C9434000C943400AA
:100010000C9434000C9434000C9434000C94340090
:100020000C9434000C9434000C9434000C94340080
:100030000C9434000C9434000C9434000C94340070
:100040000C9434000C9434000C9434000C94340060
:100050000C94340011241FBECFE5D8E0DEBFCDBF25
:100060000E945D000C9479000C94000027E030E0C1
:1000700061E070E0AB01022E02C0440F551F0A94EC
:10008000E2F7482311F4949801C0949A909A9098BA
:100090002150310978F70895CF93C82F91980E9485
:1000A00036008C2F0E9436008C2F0E9436008C2F39
:1000B0000E943600919ACF91089583E381BB12BAD2
:1000C0008FE70E944C002FEF83ED90E3215080409A
:1000D0009040E1F700C0000080E00E944C002FEF4C
:1000E00083ED90E3215080409040E1F700C0000094
:0600F000E7CFF894FFCFFA
:00000001FF
